:020000041000EA
:1000000000200008EB0000100D0000004D01001062
:1000100000000000000000000000000000000000E0
:100020000000000000000000000000004901001076
:10003000000000000000000049010010490100100C
:100040004901001049010010490100104901001048
:100050004901001049010010490100104901001038
:100060004901001049010010490100104901001028
:100070004901001049010010490100104901001018
:1000800010B5064C2378002B07D1054B002B02D06E
:10009000044800E000BF0123237010BDB003000836
:1000A000000000000C150010044B10B5002B03D00D
:1000B0000349044800E000BF10BDC0460000000036
:1000C000B40300080C1500100230800803D0013082
:1000D0000238FCD1C046C0467047EFF3108072B6BC
:1000E000704780F3108870477047FFF7FDFF72B6C6
:1000F0000F4C104DAC4209DA21686268A368043BDA
:1001000002DBC858D050FAE70C34F3E70A490B4A2F
:100110000020521A02DD043A8850FCDC08480949E4
:100120000860BFF34F8F00F0F9FE00F0A9FEFEE774
:100130001815001030150010B0030008C80500089D
:100140000000000808ED00E0FEE7FEE700B504202F
:100150007146084202D0EFF3098002E0EFF3088015
:10016000043000F08DFCFEE7014B18607047C0467C
:10017000C4050008044B1B681A00BA3212881B6AB7
:100180005043C0187047C046C40500081D4B984234
:100190000FD010D840282FD005D8002830D01028F4
:1001A00028D019481EE0802828D080235B00984280
:1001B000F7D1144816E0154B984214D008D8A02364
:1001C0001B0698421CD0124B9842EAD1A0200BE0AB
:1001D000104B98420AD0104B984209D00F4B9842CE
:1001E000DFD10F487047A420C003FBE70D48F9E7B3
:1001F0000D48F7E70D48F5E70D48F3E70D48F1E73F
:100200000020EFE706005200FF005200010000F05E
:10021000090000A0040000F0050000F0030000F059
:100220000100520002005200030052000100500081
:10023000020050000500520010B50020FFF79AFFA1
:100240000A4B1C682300BC331B68C0180368002BD2
:100250000ADB074B1868FFF799FF012263689A6071
:100260009A68002AFCD110BD0248FCE7C4050008CA
:10027000CC03000802005000064B1B68BC331B680F
:10028000C3181B68002B03DA89B241600020704755
:100290000148FCE7C405000801008A000368002B40
:1002A00004DA89B2C2608160002070470048FCE730
:1002B00001008A00064B1B68BC331B68C3181B680F
:1002C000002B03DAC36800200B6070470148FCE78D
:1002D000C405000801008A00024B1A68002A00D1F8
:1002E00018607047E0030008F0B52C246043154CFB
:1002F0001F0024681D0A2018FF2425402740124CA7
:100300001B0C26680760346A45608360BA363688FD
:1003100077433F1907612F0080376D017F01E7198F
:1003200064190A4D47611F043B436419236000238D
:100330008361059BC2610162002B01D01B88838110
:10034000F0BDC046E0030008C40500080810000026
:10035000F0B5836885B002AD2B800368066A173359
:100360006B804368476A0095826AC16A0400039300
:100370000369C068FFF7B8FF00213B000A00009145
:100380003000FFF7B1FF216B280000F02DFB0022A9
:10039000AB5E002B06DB1F2213401E3A9A4013006F
:1003A000014A136005B0F0BD00E100E0F7B52C256F
:1003B000134C684326686943341825690193711802
:1003C000002D19D08869002818D12E68002E15DA62
:1003D0006768012426004B689E40B44613689EB2AD
:1003E00063461B041E431660EA608C61BC40019B9F
:1003F000A4B24B62AC60FEBD0248FCE70248FAE7DB
:10040000E003000804028A0007028A0073B5002690
:1004100042690400D56801962B0CB34221D01B041D
:1004200013601368194B00691B68BC331B68C31841
:100430001B68B34215DA01A9FFF73CFFB0420CD1AB
:100440000198E26903681E0CDBB29A4205D9226A60
:100450009B009B58002B00D0984731002069FFF784
:100460000BFFADB2002D09D063691D6000251B682C
:10047000636AAB4205D098476562A56163691B68F2
:1004800073BDA36A002BF8D09847F6E7C4050008AF
:100490002C2310B54343034A1068C018FFF7B6FF7A
:1004A00010BDC046E0030008F8B5194B0F001B68EB
:1004B0001A0033321278824227D9002925D01F250D
:1004C0000A68154021D11900BA310C88114E6043D9
:1004D0001C6AD208041929007868346000F07EFF95
:1004E00029002000FFF7C8FE3A0029003068FFF716
:1004F000D5FE041E07D101003068FFF7BDFE0300E2
:100500002000002B00D00448F8BD0448FCE7C0469A
:10051000C4050008E403000801018A0003018A0001
:1005200010B5002A0DD1002914D10B4B1A68130005
:10053000BA331B885843136AC018084B1860080068
:1005400010BD002906D0064B196019005A60FFF74C
:10055000ABFFF5E70348F3E7C4050008E403000830
:100560007803000803018A00F7B5184F04003B68C0
:100570000191DE683368834226D90025A94202D161
:10058000FFF7ABFD050038680368002B1ADA1F225D
:1005900001232240934064097268A4001419226860
:1005A00013420DD09A43226000240021FFF764FE1D
:1005B000019B002B02D12800FFF793FD2000FEBD18
:1005C000034CF2E7034CF3E7034CF7E7E4030008BE
:1005D000020188000301880004018A000A4B1B689D
:1005E000DB681A6882420DD959681F2342091840F6
:1005F0001E3B8340920050581840431E9841034BC5
:10060000C01870470248FCE7E403000800018800B6
:1006100004018A00054B1B681A0088321B681268A7
:100620009B181868000AC0B27047C046C40500088D
:10063000044B1B681A0088321B6812689B181868E4
:10064000000E7047C4050008024B18694007C00F30
:100650007047C04600002740A6220549D2008B58AB
:100660000220DB439B0702D00123885818407047C3
:100670000000264010B5FFF7EFFF0023022801D14C
:10068000014B1B68180010BDEC030008094A8300E9
:100690009B18D0229200985807221040042807D1B6
:1006A000C022920098581F23034080204000184326
:1006B0007047C0460000264010B5FFF7E7FF02284C
:1006C0001CD005D8002824D0012814D0002014E024
:1006D0001223FF33984214D01423FF33984215D0CD
:1006E000033B9842F2D10C4A0C4BD358002BEDDA65
:1006F0008020000201E00A4B186810BDFFF7BAFF26
:10070000FBE7FFF7A1FF0028E0D0F1E7024A054B25
:10071000EBE70548F1E7C046000026400C05000065
:10072000E80300083C05000000127A00B023154AD7
:10073000DB00D35810B59903DB01DB0F890BC371C4
:10074000114B0160D3580F24D904DB01DB0D038169
:10075000B123DB00D358C90C81801900214081727C
:1007600019092140C172D9029B009B0F8373074B6B
:10077000C90CD35881815A05DB01520FDB0D827100
:10078000038210BD00002640840500008C05000097
:1007900010B5104B421E1B683F331B78934216D98D
:1007A0007F221F248030FF300B4B8000C3581A403B
:1007B0000A701A0C2240180A8A701A012040E2407E
:1007C000487000209B009B0FCA700B7110BD03483E
:1007D000FCE7C046C40500080000264001004A00AE
:1007E000F0B589B003AC14220021200000F0F6FD22
:1007F0002000FFF79BFFB0231A4ADB00D2580023EA
:100800009A4203DAA37B023B5A1E9341E579002604
:100810006A1E95410135B34221D0A488B4421ED04E
:10082000039B30000193FFF747FF2A0033000700C6
:100830003100200000F0BCFC0C0005003300019AE0
:100840003100380000F0B4FCE6076A083243630860
:10085000801859412A00230000F08AFC060030006D
:1008600009B0F0BD00002640F0B50026244B85B04D
:100870001B6807003F331B78B3423ED0B0423CD0E8
:1008800083423AD30522310002A800F0A7FD02A955
:100890003800FFF77DFF3B008033FF33194A9B0090
:1008A0009B58B34229DA02AB1B79022B25D002AB4D
:1008B0005C78B44221D09D78B5421ED01B783800B8
:1008C0000193FFF7F9FE2A003300070031002000F2
:1008D00000F06EFC0C0005003300019A3100380076
:1008E00000F066FCE6076A08324363088018594145
:1008F0002A00230000F03CFC0600300005B0F0BDEB
:10090000C40500080000264010B5041E04D1FFF7FE
:1009100067FF002806D008E0064B1B683F331B78B2
:10092000834203D22000FFF7C7FE10BDFFF79CFFF4
:10093000EFE7C046C4050008E02210B50124094BCA
:1009400080009200C018835880589B069B0F9C40E3
:100950000F231840FFF7D8FF63081818210000F094
:100960007BFB10BD00002640144B30B51A680724ED
:1009700013002C331B781F2B15D883081D00A543AB
:100980002C1E0FD103342040A040814012689B00F0
:100990002032D3180A00FF2181401C6862401140B8
:1009A0006140196030BD802320401B06184380231E
:1009B0009B011268C91889008850F3E7C405000834
:1009C000064B9A680300064810339B00824202D10E
:1009D000985899507047034AD058FBE700ED00E063
:1009E0000000000800000010F8B506000D00002807
:1009F0003AD00023C05E002828DB7188FFF7B4FFDF
:100A00000024FF22032794460023F05E716883B21E
:100A10001F40FF006646BA4089013140D243B940C9
:100A2000002815DB114E83089B009B19C026B600D9
:100A30009F593A40114399510D4B9A680D4B9A4278
:100A400002D12900FFF7BCFF2000F8BD0A4CD8E70F
:100A50000F263340083B064E9B089B009B19DE691E
:100A600032401143D961E7E7034CEDE700E100E0D4
:100A700000ED00E00000000801005600FEE7000065
:100A800002680A4B10B51A6042685A6082689A6020
:100A9000C268DA6002691A6142695A6182699A61C0
:100AA000C269DA61FFF7EAFF10BDC0469003000893
:100AB000B0235B055A782120002A01D05878C0B2B3
:100AC0007047B0235B059A89002A02D0988980B2CA
:100AD000704780204000FBE77FB5274B86000D0064
:100AE000F458042901D0012927D100200FE0A36880
:100AF0002B420BD1E36829001A685B6802920193CC
:100B0000039302A8236898471C4B1C606469002C5F
:100B10000BD01B4B9842EAD1012DE8D1174B184856
:100B20001A68184B9A5104B070BD012DFBD1144BBB
:100B30009842F3D0134B9C51F5E7022906D10F4B95
:100B40001B68181EEFD01C6903E01C006369002BB2
:100B5000FBD10020002CE6D0A3682B4209D1E3682A
:100B600029001A685B6802920193039302A8236824
:100B700098472469EEE7C046300400082C040008BA
:100B8000FF004200180400081A4B1B681900883146
:100B90001A68096851180968016219008C310968DE
:100BA0005218126842621A0046321278002A1FD088
:100BB0009A68E0321268D2061AD5F222DB68D201B6
:100BC0009A580260F022D2019A5842600A4A9A5812
:100BD00082600A4A9A58C260094A9A580261094AD0
:100BE0009A584261084A9A588261084A9B58C361E0
:100BF0007047C046C405000804780000087800006B
:100C00000C780000107800001478000018780000BC
:100C10001A4B1B681A008832196812688A18016A10
:100C200011601A008C32196812688A18416A1160C2
:100C30001A0046321278002A1ED09A68E0321268F2
:100C4000D20619D5F0224168DB68D201995081683B
:100C50000B4A9950C1680B4A995001690A4A995048
:100C600041690A4A99508169094A9950C169094AFA
:100C700099500168E83299507047C046C405000891
:100C800004780000087800000C780000107800005C
:100C90001478000018780000F7B50700FFF708FF88
:100CA000664D06006B68002B00D07DE0FFF715FA5B
:100CB0006B680090002B00D089E0614C2268130023
:100CC000BA33198807234B43126A9B181A68002A03
:100CD000FCDADB68DA0021D51B0F1B0759480193AA
:100CE000FFF752FF5849212E00D075E0226890206E
:100CF000130088331C68136800011C1923680B401B
:100D00000343236013008C3312681B68D3181A68DE
:100D10001140084318604B4B019A13438022484E00
:100D20009205316813430A00BA3210880722002462
:100D30004243096A5218D36054605368FFF7C1FEFA
:100D400080235B0098425DD1380000F05DFB326883
:100D50001300BA33198807234B43126A9B181A6889
:100D6000002AFCDADF68FB0003D538010009FFF731
:100D70004FFF364B32681F401300BA3319880723E0
:100D80004B43126A00989B180022DF605A60FFF7FD
:100D9000A8F9002C0FD16B68002B03D0082101208B
:100DA000FFF79AFE2000FEBD01210800FFF794FE28
:100DB000041E00D17AE76B68002B03D002210120CA
:100DC000FFF78AFE224B9C42ECD0224CEAE704213A
:100DD0000120FFF781FE70E720688022030088333E
:100DE0001C68036852001C1923680B4013432360DE
:100DF00003008C3300681B68C318186801400A435D
:100E00001A6088E733681A00BC32196A12685218EF
:100E10001168002910DBBA331B889A181368002B5D
:100E20000ADB04230C4A11690B431361012F01D023
:100E300030BF8CE720BF8AE7054C88E73004000804
:100E4000C4050008F0030008FF00FFFFFFFFFFDFFD
:100E500005004200FF00420000ED00E0C0228020BB
:100E6000064952008B58C0059B009B0803438B50DA
:100E7000802388581B0603438B5070470000264090
:100E800010B562B6034800F0C1F80020FFF704FF78
:100E9000FBE7C0460020001010B50020FFF7F8FA6D
:100EA00010BD704710B50020FFF746FD041E25D089
:100EB000134B1860FFF7BCFB411C200000F0CCF87E
:100EC000104B04001860FFF7A5FB411C200000F048
:100ED000C3F80D4B441E18600C49200000F0BCF80C
:100EE000FA210B4B013018708900200000F0B4F893
:100EF000084B01301860084BC003186010BDC04695
:100F000084000008880000088000000840420F00AC
:100F100094000008900000088C00000810B52048DC
:100F2000FFF722F9B022E02130201E4CD200A35856
:100F300089005B005B08A3506358834363508023A0
:100F40005B04A350184B194AE250A02204339201CB
:100F5000E250FF22164BE250FFF780FFC022012132
:100F60005200A3588B43A350FFF79BFFFFF79AFF54
:100F7000104B03201A681300BA33198807234B4318
:100F8000126A80219B180022DA605A600A4AFFF731
:100F9000C7FA0A48FFF7A0F90948FFF7D9F910BDC9
:100FA0001814001000002640840500000100020013
:100FB0008C050000C40500088003000844040008F4
:100FC000D81400109023034A5B01D0580323184023
:100FD0007047C0460000204010B59024FFF77DF810
:100FE000074B64011A5907491140074A0A431A512D
:100FF000102259681142FCD0FFF773F810BDC046AB
:1010000000002040FCFF00000100FA05F8B5902523
:101010000E4C6D010700FFF760F863590600DB43D3
:101020009B0701D1FFF7D8FF80239B00E75063594E
:10103000074A1A40074B13436351102362681A4250
:10104000FCD03000FFF74DF8F8BDC046000020404E
:10105000FCFF00000300FA05002243088B4274D312
:1010600003098B425FD3030A8B4244D3030B8B42A9
:1010700028D3030C8B420DD3FF22090212BA030CB2
:101080008B4202D31212090265D0030B8B4219D393
:1010900000E0090AC30B8B4201D3CB03C01A5241B3
:1010A000830B8B4201D38B03C01A5241430B8B42FB
:1010B00001D34B03C01A5241030B8B4201D30B03E4
:1010C000C01A5241C30A8B4201D3CB02C01A52410B
:1010D000830A8B4201D38B02C01A5241430A8B42CE
:1010E00001D34B02C01A5241030A8B4201D30B02B7
:1010F000C01A5241CDD2C3098B4201D3CB01C01AD1
:10110000524183098B4201D38B01C01A52414309DA
:101110008B4201D34B01C01A524103098B4201D3C8
:101120000B01C01A5241C3088B4201D3CB00C01A35
:10113000524183088B4201D38B00C01A52414308AD
:101140008B4201D34B00C01A5241411A00D20146D2
:10115000524110467047FFE701B5002000F006F845
:1011600002BDC0460029F7D076E770477047C046F9
:10117000002B11D1002A0FD1002900D1002802D064
:101180000021C943081C07B4024802A1401802907C
:1011900003BDC046D9FFFFFF03B4684601B50298FE
:1011A00000F030F8019B9E4602B00CBC7047C04670
:1011B000F0B5CE46474615042D0C2E0080B5070429
:1011C000140C3F0C9946030C7E435D436743634315
:1011D0007F19340CE4199C46A54203D980235B0295
:1011E0009846C4444B4643435143250C360465445A
:1011F000360C2404A4195B19591820000CBC904625
:101200009946F0BDF0B54F464646D646C0B50400F7
:1012100082B00D00914698468B422FD82CD0414683
:10122000484600F0CFF829000600200000F0CAF878
:10123000331A9C46203B9A4600D576E04B465246F0
:1012400093401F004B46624693401E00AF4228D891
:1012500025D05346A41BBD41002B00DA7BE00022C1
:1012600000230092019301235246934001930123EE
:1012700062469340009318E08242D0D900220023B6
:10128000009201930A9B002B01D01C605D600098C6
:10129000019902B01CBC90469946A246F0BDA342FB
:1012A000D7D900220023009201936346002BE9D096
:1012B000FB079846414672080A437B0866460EE0E3
:1012C000AB4201D1A2420CD8A41A9D41012024199D
:1012D0006D410021013E24184D41002E06D0AB4245
:1012E000EED9013E24196D41002EF8D100980199E4
:1012F000534600196941002B23DB2B005246D34093
:101300002A006446E2401C0053461500002B2DDBEA
:1013100026005746BE40330026006746BE403200D6
:10132000801A994100900191ACE7624620239B1AF4
:101330004A46DA406146130042468A4017001F437E
:1013400080E7624620239B1A2A0066469A402300C3
:10135000F3401343D4E76246202300219B1A002266
:10136000009101920122DA40019280E72023624637
:1013700026009B1ADE402F00B0466646B740464620
:101380003B003343C8E7C0461C2101231B0498429D
:1013900001D3000C10391B0A984201D3000A083906
:1013A0001B09984201D30009043902A2105C4018BD
:1013B0007047C04604030202010101010000000061
:1013C0000000000010B5002903D1FFF7DDFF203039
:1013D00002E0081CFFF7D8FF10BDC046030012183A
:1013E000934200D1704719700133F9E7F8B5C04650
:1013F000F8BC08BC9E467047F8B5C046F8BC08BCAF
:101400009E4670470000000001B40248844601BCBB
:10141000604700BF61020008000020400000244037
:1014200000000040000000000000234000003040A9
:101430000000314000009F400000224000001040AA
:1014400000009B402020202020132010101E208010
:1014500017007500FF03050104001C0310000000C5
:101460001FC0000000040000000000000019324B03
:10147000647D0202000000804000080B10000000A4
:101480000000FF012002001F00800004FF08101868
:10149000001000140018001C4044484C500000008C
:1014A0000810000008000000040000000410000004
:1014B00000120000042100000021000000160000BE
:1014C00040114002C41300138013A013401388136B
:1014D000A81320001C000000030000000100000011
:1014E000010000000000000005036000040000008F
:1014F0000100000000000000010000000604600080
:1015000008000000A4050008990E0010000000006B
:10151000F4FCFF7F01000000000000100000000844
:10152000800000003815001080000008F80200005C
:10153000B00300081802000000093D0000127A0004
:1015400000093D000000D007A00F000004000000CB
:10155000A90000108100001080B230B5C00020D07A
:10156000104B07221C682300BA331B885A43236A96
:10157000D31819680029FCDA3E210B4B06251960A7
:101580000A4B0B491960A3210A4BC9005D500A4957
:1015900058505858206A1218002050605A58002A93
:1015A000FCDA30BDC40500080401264008012640CD
:1015B0001E1F0000000026401C05000010B54378E7
:1015C000FF2B11D100F00CF90400032000F0E8F823
:1015D000C3685A68012311681943116011681942E0
:1015E000FCD1200000F01CF910BDF7B500900020E0
:1015F000019100F0D5F83F4D06002B681A005033DA
:10160000BC3214681B780419002B5AD000F0F8F88B
:10161000070003281BD000F0E3F8374A374B0500DA
:10162000D358002B3EDA364A0121300000F0C0F8D2
:10163000002837D10198FFF78FFF009B002B3ED089
:101640002368002BFCDB00F0C3F804002BE006202D
:1016500000F0A6F82B68BC331B68C0180368002B89
:1016600002DA284C2000FEBD002000F0C1F8264B15
:101670009842F6D00023254A19001268012000F094
:101680009FF80025A842ECD1002000F0B1F81E4AD6
:101690001F4B904203D09D42E3D00135F4E79D42B9
:1016A000B9D1DEE7174C032F05D10121002000F04E
:1016B000AFF80028F9D1280000F0B2F8D2E7154CB5
:1016C000F1E700F08DF80E4A05000121300000F02E
:1016D0006FF8002809D1009B002B08D02368002B4D
:1016E000FCDB00F075F80400E5E7064CE3E7094C85
:1016F000E1E7C046C4050008000026401C050000C4
:10170000CC0300080500520001018800DC0300083A
:10171000F049020001005000184BF7B51B68184A49
:101720005C68042311690B431361012824D030BF86
:101730002300FC331B69002B1DD1A320114B124940
:10174000124AC0000F681E5815680195104D0D60B3
:1017500006251D503E2010600E483E351D501D5878
:10176000002DFCDA0C48FC3420610F60A321C90075
:101770005E50019B1360F7BD20BFD9E7C405000888
:1017800000ED00E00000264008012640040126404C
:101790001E1F00001C050000AAAAAAAA0000000043
:1017A00001B40248844601BC604700BF75010010C7
:1017B00001B40248844601BC604700BF9D0200108E
:1017C00001B40248844601BC604700BFAD0300106D
:1017D00001B40248844601BC604700BF39020010D2
:1017E00001B40248844601BC604700BFDB00001022
:1017F00001B40248844601BC604700BFDD0500100B
:1018000001B40248844601BC604700BFC50F001008
:1018100001B40248844601BC604700BF690500105E
:1018200001B40248844601BC604700BFE3000010D9
:1018300000000000000000000000000000000000A8
:081840000000000000000000A0
:1020000000F80108412300100D000000B523001066
:10201000B5230010B5230010B52300100000000008
:10202000000000000000000000000000315500101A
:10203000B123001000000000D1550010D154001051
:10204000B123001000000000B1230010B1230010E4
:1020500000000000B1230010B1230010B1230010D4
:10206000B1230010B1230010B1230010B1230010E0
:10207000B123001000000000B1230010B1230010B4
:10208000B1230010B1230010B1230010B1230010C0
:10209000B1230010B1230010B1230010B1230010B0
:1020A000B1230010B1230010B1230010B1230010A0
:1020B000B1230010B1230010B1230010B123001090
:1020C000B1230010B1230010B1230010B123001080
:1020D000B1230010B1230010B1230010B123001070
:1020E000B1230010B123001000000000B123001044
:1020F000B1230010B1230010B1230010B123001050
:1021000000000000B1230010B1230010B123001023
:10211000B1230010B12300100000000000000000F7
:10212000B1230010B1230010B1230010B12300101F
:10213000B1230010B1230010B1230010B12300100F
:10214000B1230010B1230010B1230010B1230010FF
:10215000B1230010B1230010B1230010B1230010EF
:10216000B1230010B1230010B1230010B1230010DF
:10217000B1230010B1230010B1230010B1230010CF
:10218000B1230010B1230010B1230010B1230010BF
:10219000B1230010B1230010B1230010B1230010AF
:1021A000B1230010B1230010B1230010B12300109F
:1021B000B1230010B1230010B1230010B12300108F
:1021C000B1230010B1230010B1230010B12300107F
:1021D000B1230010B1230010B1230010B12300106F
:1021E000B1230010B1230010B1230010B12300105F
:1021F000B1230010B1230010B1230010B12300104F
:10220000B1230010B1230010B1230010B12300103E
:10221000B1230010B1230010B1230010B12300102E
:10222000B1230010B1230010B1230010B12300101E
:10223000B1230010B1230010B123001000000000F2
:10224000000000000000000000000000B1230010AA
:10225000B1230010B1230010B1230010B1230010EE
:10226000B1230010B1230010B123001000000000C2
:10227000000000000000000000000000000000005E
:102280000000000000000000B1230010000000006A
:10229000000000000000000000000000000000003E
:1022A000000000000000000000000000000000002E
:1022B000000000000000000000000000000000001E
:1022C000B1230010B1230010B1230010B12300107E
:1022D00000000000000000000000000000000000FE
:1022E000B1230010B1230010B1230010B12300105E
:1022F000B1230010B1230010B123001010B5054C1C
:10230000237833B9044B13B10448AFF300800123A1
:10231000237010BD6C2A00080000000010BA0110E4
:1023200008B5034B1BB103490348AFF3008008BD58
:1023300000000000702A000810BA011070477047B2
:10234000FFF7FCFF72B6144C144DAC4209DA216859
:102350006268A368043BA2BFC858D050FAE70C34A7
:10236000F3E70F490F4A00209142BCBF41F8040B2C
:10237000FAE70D480D490860BFF34F8F01F07CFE6E
:1023800001F060FE02F0DEFF11F092FA01F0B0FE03
:1023900011F05AFAFEE700001CBA011034BA01101D
:1023A0006C2A0008FCFF00080020000808ED00E08F
:1023B000FEE7FEE700B504207146084202D0EFF3C5
:1023C000098002E0EFF3088004300FF02DFBFEE7F8
:1023D00000B585B08DF80C008DF80D100123019328
:1023E00000230093022303AA2921044807F098FF41
:1023F00000B101BE05B05DF804FB00BF882A0008EB
:1024000000B585B08DF80C000123019300220092E5
:1024100003AA29210A4807F083FF00B101BE012366
:1024200001930022009202AA2921054807F0C4FF67
:1024300000B101BE9DF9080005B05DF804FB00BFC6
:10244000882A0008000000002DE9F84301218020BF
:10245000FFF7BEFF8820FFF7D3FF07468920FFF76D
:10246000CFFF05468A20FFF7CBFF06468B20FFF7FC
:10247000C7FF2D022DB23FB23D43002DB8BF6D42C4
:10248000040224B236B23443002CB8BF644224B2F2
:1024900028B210F001FC06460F46204610F0FCFB67
:1024A00004460D4602460B463046394610F0A8FA5F
:1024B00002460B463046394610F082FD804689467A
:1024C0003BA3D3E9002310F0C3FEC8B13AA3D3E97C
:1024D00000232046294610F049FC04460D4638A347
:1024E000D3E900233046394610F040FC02460B4643
:1024F0002046294610F084FA10F0D2FEBDE8F88399
:1025000031A3D3E900234046494610F0A1FE00B3B1
:1025100027A3D3E900234046494610F0ADFEC0B1E1
:102520002BA3D3E900232046294610F01FFC0446C4
:102530000D4629A3D3E900233046394610F016FC96
:1025400002460B462046294610F058FA10F0A8FE25
:10255000D4E723A3D3E900234046494610F078FE90
:1025600000B319A3D3E900234046494610F084FE86
:10257000D0B11DA3D3E900232046294610F0F6FB75
:1025800004460D461AA3D3E900233046394610F01D
:10259000EDFB02460B462046294610F031FA10F0BA
:1025A0007FFEABE70020A9E70020A7E7AFF300809C
:1025B000CDCCCCCCCCCCDC3F4FAF94658863FC3F1A
:1025C000A857CA32C4B1F13F7B14AE47E17AE43F69
:1025D00077BE9F1A2F1D11406688635DDC46FF3F62
:1025E000333333333333EB3FD881734694F6E23FD2
:1025F000BC7493180456BE3F00B583B04FF4E1336A
:102600000093FF231A462821292010F0C9F900B1B0
:1026100001BE03B05DF804FB08B50123062219468C
:102620003B2007F071FA00B101BE08BD00B585B0CE
:102630000523ADF80C300023ADF808300EE001BEE4
:10264000124B1B6898690122032100F560700AF0A3
:10265000ABFE9DF8093013F0010F14D00B4B1B6833
:1026600098690022032100F560700AF09DFE0023A6
:1026700001930222009202AB03A9054809F09CFADB
:102680000028DDD0DBE705B05DF804FBDCFD0008C9
:10269000502D000810B584B00623ADF80C3000248E
:1026A000ADF808400E4B1B6898692246032100F5DF
:1026B00060700AF079FE01940222009202AB03A935
:1026C000084809F079FA00B101BE054B1B6898690A
:1026D0000122032100F560700AF066FE04B010BD0F
:1026E000DCFD0008502D000810B584B00423ADF8BF
:1026F0000C300024ADF808400E4B1B689869224648
:10270000032100F560700AF04FFE0194022200924E
:1027100002AB03A9084809F04FFA00B101BE054B0E
:102720001B6898690122032100F560700AF03CFEE5
:1027300004B010BDDCFD0008502D000810B584B0B9
:1027400002238DF80C30030A8DF80D308DF80E0041
:102750008DF80F1000240294FFF768FFFFF79AFF2F
:102760000F4B1B6898692246032100F560700AF040
:102770001BFE01940422009202AB03A9094809F050
:102780001BFA00B101BE064B1B68986901220321A8
:1027900000F560700AF008FEFFF7A6FF04B010BD58
:1027A000DCFD0008502D000830B585B003258DF8FC
:1027B0000C50030A8DF80D308DF80E0000248DF8B2
:1027C0000F400294FFF732FFFFF764FF104B1B68C6
:1027D00098692246294600F560700AF0E5FD0194EB
:1027E0000422009202AB03A90A4809F0E5F900B1FE
:1027F00001BE074B1B6898690122032100F5607038
:102800000AF0D2FDFFF770FF9DF80B0005B030BD58
:10281000DCFD0008502D000808B50023022203212A
:10282000074807F0EDFC08B101BEFEE70549044882
:1028300007F05CFD08B101BEFEE7002008BD00BF47
:10284000882A0008FC22000808B501230622194640
:102850003C2007F059F908BD08B50FF0C1F808BDD4
:102860002DE9F04383B00D46914698465F1C3846EB
:1028700011F046F80446384611F042F8064605F0D5
:102880007F05204600F8015B4246494611F048F8B2
:10289000DFF85080D8F8003098690022042100F554
:1028A00060700AF081FD00230193009733463A4699
:1028B00021460B4809F080F90546D8F800309869A0
:1028C0000122042100F560700AF06EFD204611F02F
:1028D0001FF8304611F01CF8284603B0BDE8F0831D
:1028E000502D0008DCFD00082DE9F04782B00F46AE
:1028F00090461E4603F10109484611F001F80546CD
:10290000484610F0FDFF044667F07F07284600F8B0
:10291000017B3246002111F011F8DFF860A0DAF8EF
:10292000003098690022042100F560700AF03CFD37
:1029300000230193CDF8009023464A4629460E48CD
:1029400009F03AF90746DAF80030986901220421C3
:1029500000F560700AF028FD3246611C404610F018
:10296000DFFF284610F0D4FF204610F0D1FF384694
:1029700002B0BDE8F08700BF502D0008DCFD000864
:1029800010B588B0254B0493254B0593FFF75CFFEA
:102990000F20FFF761FF234C214604A800F082FFBF
:1029A00023786A2B03D0204811F01CFDFEE701219B
:1029B00004A800F07EFF1D4C214604A800F092FF01
:1029C0002378002BF7D1062104A800F030FF002166
:1029D00004A800F013FF022104A801F055F9012119
:1029E00004A800F08EFF012104A801F034F903A926
:1029F00004A801F0A0F89DF80D3043F004038DF811
:102A00000D30039904A800F095FF01A904A800F077
:102A100027FFBDF9060008B010BD00BF61280010F7
:102A2000E92800103D2B0008986401103C2B000899
:102A300000B585B08DF80C008DF80D1001230193C1
:102A400000230093022303AA2021044807F068FC16
:102A500000B101BE05B05DF804FB00BF882A000884
:102A600000B585B08DF80C008DF80D0001230193A1
:102A700000230093022303AA20210A4807F050FCF8
:102A800000B101BE012301930022009202AA20217D
:102A9000044807F091FC00B101BE9DF8080005B0A4
:102AA0005DF804FB882A000808B50020FFF7D8FF6E
:102AB00008BD08B501460120FFF7BAFF08BD08B5FB
:102AC00001460320FFF7B4FF08BD0000F0B59C46A7
:102AD000394C0126C4F884600223C4F88430374F8F
:102AE0002A253D600425C4F88450C4F88850C4F8F1
:102AF0008830C4F888604FEA102EC0B2C4F88460F1
:102B0000C7F800E0C4F88450C4F888503860C4F8AE
:102B10008450C4F88850C4F88860080AC9B2C4F860
:102B200084603860C4F88450C4F888503960C4F8B0
:102B30008450C4F88850C4F88860C4F88460C4F82D
:102B400084302B213960C4F88450C4F88850C4F80C
:102B50008830C4F88860110AD2B2C4F88460396041
:102B6000C4F88450C4F888503A60C4F88450C4F85B
:102B70008850C4F888604FEA1C215FFA8CF2C4F8D0
:102B800084603960C4F88450C4F888503A60C4F84E
:102B90008450C4F88850C4F88860C4F88460C4F8CD
:102BA00084302C223A60C4F88450C4F88850C4F8A9
:102BB0008830C4F88860F0BD000031400001314029
:102BC00070B50446EF23002240F23F111046FFF794
:102BD0007DFF4FF0000C1CE0210AE0B2104B0125F4
:102BE000C3F884500F4E31600421C3F88410C3F839
:102BF00088103060C3F88410C3F88810C3F8885078
:102C00002A4492B2B2F5A07FE6D30CF1010C1FFA70
:102C10008CFCBCF1EF0F01D80022F3E770BD00BFC0
:102C200000003140000131402DE9F0410D46984649
:102C3000BDF81840411889B2D3189BB2013B013945
:102C40009BB289B2FFF742FF4FF0000E1BE0230A50
:102C5000E1B2104A0127C2F884700F4E336004239A
:102C6000C2F88430C2F888303160C2F88430C2F8CB
:102C70008830C2F88870384480B2A842E7D30EF199
:102C8000010E1FFA8EFEC64501D20020F5E7BDE811
:102C9000F08100BF00003140000131402DE9F84FC4
:102CA00086468C4615469946DDF82880BDF82C707E
:102CB000BDF830600024A0EB520080B20EEB520150
:102CC00089B212F0010F01D1013989B2ACEB59027E
:102CD00092B20CEB59039BB219F0010F01D1013BE9
:102CE0009BB2FFF7F3FE4FEAD50C15F0070F01D0AA
:102CF0000CF1010C002249E014F0800F2AD1330AB4
:102D00005FFA86FE24484FF0010AC0F884A0DFF87D
:102D10008CB0CBF800300423C0F88430C0F8883081
:102D2000CBF800E0C0F88430C0F88830C0F888A044
:102D30006400E4B2013189B2A94225D211F0070F33
:102D4000DAD112FB0CF3C80810FA83F39BB218F81F
:102D50000340D1E7380A5FFA87FE0F4B4FF0010AB4
:102D6000C3F884A0DFF834B0CBF800000420C3F827
:102D70008400C3F88800CBF800E0C3F88400C3F8EF
:102D80008800C3F888A0D3E7013292B24A4501D245
:102D90000021D1E7BDE8F88F00003140000131404B
:102DA0002DE9F843EA4C0125C4F884504FF002089D
:102DB000C4F88480E74F3D600426C4F88460C4F8FA
:102DC0008860C4F88880C4F8885032200EF008FE6D
:102DD000C4F88450C4F884804FF01109C7F80090FB
:102DE000C4F88460C4F88860C4F88880C4F8885047
:102DF00078200EF0F5FDC4F88450C4F88480CF2309
:102E00003B60C4F88460C4F88860C4F88880C4F863
:102E10008850C4F8845000233B60C4F88460C4F830
:102E20008860C4F88850C4F8845083223A60C4F89B
:102E30008460C4F88860C4F88850C4F88450302294
:102E40003A60C4F88460C4F88860C4F88850C4F854
:102E50008450C4F88480ED223A60C4F88460C4F8D9
:102E60008860C4F88880C4F88850C4F8845064220C
:102E70003A60C4F88460C4F88860C4F88850C4F824
:102E8000845003223A60C4F88460C4F88860C4F8AF
:102E90008850C4F8845012223A60C4F88460C4F8A0
:102EA0008860C4F88850C4F8845081223A60C4F81D
:102EB0008460C4F88860C4F88850C4F88450C4F8AA
:102EC0008480E8223A60C4F88460C4F88860C4F85A
:102ED0008880C4F88850C4F8845085223A60C4F8C9
:102EE0008460C4F88860C4F88850C4F884503D6099
:102EF000C4F88460C4F88860C4F88850C4F884506A
:102F000079223A60C4F88460C4F88860C4F88850B4
:102F1000C4F88450C4F88480CB223A60C4F884603A
:102F2000C4F88860C4F88880C4F88850C4F8845015
:102F300039223A60C4F88460C4F88860C4F88850C4
:102F4000C4F884502C223A60C4F88460C4F88860C5
:102F5000C4F88850C4F884503B60C4F88460C4F856
:102F60008860C4F88850C4F8845034223A60C4F8A9
:102F70008460C4F88860C4F88850C4F88450C7F8E6
:102F80000080C4F88460C4F88860C4F88850C4F82D
:102F90008450C4F88480F7213960C4F88460C4F890
:102FA0008860C4F88880C4F88850C4F88450202110
:102FB0003960C4F88460C4F88860C4F88850C4F8E4
:102FC0008450C4F88480EA213960C4F88460C4F86D
:102FD0008860C4F88880C4F88850C4F884503B6086
:102FE000C4F88460C4F88860C4F88850C4F8845079
:102FF0003B60C4F88460C4F88860C4F88850C4F8A2
:103000008450C4F88480C1213960C4F88460C4F855
:103010008860C4F88880C4F88850C4F88450C7F821
:103020000090C4F88460C4F88860C4F88850C4F87C
:103030008450C4F88480C5213960C4F88460C4F821
:103040008860C4F88880C4F88850C4F884503A6016
:10305000C4F88460C4F88860C4F88850C4F8845008
:103060003D223A60C4F88460C4F88860C4F888508F
:10307000C4F88450C4F88480C7223A60C4F88460DD
:10308000C4F88860C4F88880C4F88850C4F88450B4
:10309000C0223A60C4F88460C4F88860C4F88850DC
:1030A000C4F88450C4F8848036223A60C4F884603E
:1030B000C4F88860C4F88880C4F88850C4F8845084
:1030C00068223A60C4F88460C4F88860C4F8885004
:1030D000C4F88450C4F884803A223A60C4F884600A
:1030E000C4F88860C4F88880C4F88850C4F8845054
:1030F00055223A60C4F88460C4F88860C4F88850E7
:10310000C4F88450C4F88480B1223A60C4F8846062
:10311000C4F88860C4F88880C4F88850C4F8845023
:103120003B60C4F88460C4F88860C4F88850C4F870
:1031300084501D223A60C4F88460C4F88860C4F8E2
:103140008850C4F88450C4F88480B62104E000BFDD
:1031500000003140000131403960C4F88460C4F897
:103160008860C4F88880C4F88850C4F884500A2263
:103170003A60C4F88460C4F88860C4F88850C4F821
:103180008450A2203860C4F88460C4F88860C4F811
:103190008850C4F8845027203860C4F88460C4F88C
:1031A0008860C4F88850C4F884503B60C4F88460D8
:1031B000C4F88860C4F88850C4F88450C4F8848087
:1031C000B7233B60C4F88460C4F88860C4F8888082
:1031D000C4F88850C4F8845007233B60C4F8846066
:1031E000C4F88860C4F88850C4F88450C4F8848057
:1031F0003960C4F88460C4F88860C4F88880C4F872
:103200008850C4F8845008233B60C4F88460C4F834
:103210008860C4F88850C4F88450C4F88480262399
:103220003B60C4F88460C4F88860C4F88880C4F83F
:103230008850C4F884503D60C4F88460C4F8886045
:10324000C4F88850C4F88450C4F88480E0233B60FC
:10325000C4F88460C4F88860C4F88880C4F88850D2
:10326000C4F884501F233B60C4F88460C4F88860AD
:10327000C4F88850C4F884501A233B60C4F88460B2
:10328000C4F88860C4F88850C4F8845018233B60A0
:10329000C4F88460C4F88860C4F88850C4F88450C6
:1032A0003A60C4F88460C4F88860C4F88850C4F8F0
:1032B00084500F233B60C4F88460C4F88860C4F86D
:1032C0008850C4F8845006233B60C4F88460C4F876
:1032D0008860C4F88850C4F8845045233B60C4F823
:1032E0008460C4F88860C4F88850C4F88450872388
:1032F0003B60C4F88460C4F88860C4F88850C4F89F
:1033000084504FF03209C7F80090C4F88460C4F8C4
:103310008860C4F88850C4F884503A60C4F8846067
:10332000C4F88860C4F88850C4F8845007233B6010
:10333000C4F88460C4F88860C4F88850C4F8845025
:10334000C7F80080C4F88460C4F88860C4F8885066
:10335000C4F884503B60C4F88460C4F88860C4F842
:103360008850C4F8845005233B60C4F88460C4F8D6
:103370008860C4F88850C4F8845000223A60C4F8C9
:103380008460C4F88860C4F88850C4F88450C4F8D5
:103390008480E1213960C4F88460C4F88860C4F88E
:1033A0008880C4F88850C4F884503A60C4F88460B7
:1033B000C4F88860C4F88850C4F8845025223A6064
:1033C000C4F88460C4F88860C4F88850C4F8845095
:1033D0003860C4F88460C4F88860C4F88850C4F8C1
:1033E00084503B60C4F88460C4F88860C4F8885096
:1033F000C4F8845010223A60C4F88460C4F888602D
:10340000C4F88850C4F8845009223A60C4F8846033
:10341000C4F88860C4F88850C4F884503A223A60EE
:10342000C4F88460C4F88860C4F88850C4F8845034
:1034300078203860C4F88460C4F88860C4F8885084
:10344000C4F884504D213960C4F88460C4F88860A1
:10345000C4F88850C4F884503B60C4F88460C4F851
:103460008860C4F88850C4F8845018233B60C4F8BE
:103470008460C4F88860C4F88850C4F884500D2370
:103480003B60C4F88460C4F88860C4F88850C4F80D
:10349000845038233B60C4F88460C4F88860C4F862
:1034A0008850C4F884503A60C4F88460C4F88860D6
:1034B000C4F88850C4F884501F233B60C4F884606B
:1034C000C4F88860C4F88850C4F88450C4F8848074
:1034D00011233B60C4F88460C4F88860C4F8888015
:1034E000C4F888500EF07CFAC4F88450C4F8848084
:1034F00029233B60C4F88460C4F88860C4F88880DD
:10350000C4F8885048460EF06BFABDE8F88300BF57
:1035100008B5012306221946082006F0F5FA00B185
:1035200008BD012306221946092006F0EDFA0028FD
:10353000F6D10123062219460A2006F0E5FA0028F2
:10354000EED1012306221946102006F0DDFA0028EC
:10355000E6D1012306221946112006F0D5FA0028EB
:10356000DED1012306221946122006F0CDFA0028EA
:10357000D6D1012306221946132006F0C5FA0028E9
:10358000CED1012306221946142006F0BDFA0028E8
:10359000C6D1012306221946152006F0B5FA0028E7
:1035A000BED1012306221946162006F0ADFA0028E6
:1035B000B6D1012306221946172006F0A5FAAFE777
:1035C00008B5FFF7A5FF00B108BDFFF7E9FB002034
:1035D000FFF7F6FAF8E738B500231A461946332004
:1035E00006F092FA044600231A461946342006F0E3
:1035F0008BFA054600231A461946352006F084FA50
:103600000CB905B900B101BE38BD000082B02E4B27
:103610001B690193019B13F0200F24D12B4B012236
:103620001A70019B13F0100F25D1294B01221A703B
:10363000019B13F0080F26D1264B01221A70234B51
:103640001B7843BB244A127852BB214B1B785BBBCF
:10365000224A127862BB1F4B1B786BBB204A127840
:1036600072BB00201AE0019B13F0200FD9D0174B3A
:1036700000221A70D5E7019B13F0100FD8D0144B1D
:1036800000221A70D4E7019B13F0080FD7D0114B1A
:1036900000221A70D3E7104A1370032002B070475B
:1036A0000D4A13700620F9E70C4A13700220F5E763
:1036B0000A4A13700520F1E7094A13700120EDE76B
:1036C000074A13700420E9E700033140422B000849
:1036D000402B00083E2B0008432B0008412B00081C
:1036E0003F2B000800B583B000225621104805F09A
:1036F000B9F900B101BE0F490D4804F013FE00B145
:1037000001BE0D4B0093FF23562209490B4804F0DC
:103710001DFF00B101BE084B0093FF23572204494F
:10372000074804F013FF00B101BE03B05DF804FBCD
:103730005C2B0008B4640110AC640110442B000839
:10374000502B000808B5024805F010F808BD00BF6E
:10375000442B000808B5024805F008F808BD00BF72
:10376000502B000810B5FFF7EDFF0446FFF7F2FFFE
:10377000B4F5804F07D2B0F5804F27D3B0F5404F56
:1037800026D3062023E0B4F5404F09D3B0F5804F8F
:1037900020D3B0F5404F01D2012018E0052016E0FB
:1037A000B0F5804F06D2B4F5804F03D94BF6FE73C7
:1037B0009C4211D9B0F5404F10D3B4F5804F0FD9CA
:1037C0004BF6FE739C420DD9002000E0082010BD8E
:1037D0000220FCE70720FAE70420F8E70020F6E7DC
:1037E0000020F4E70320F2E710B54468C068A04762
:1037F00010BD10B50468C068A04710BD30B583B0D7
:1038000004460D46012301AA1021FFF7EDFF08B180
:1038100003B030BD9DF8043065F383038DF80430A8
:10382000012301AA10212046FFF7E3FFF0E730B59E
:1038300083B004460D46012301AA1021FFF7D4FFEF
:1038400008B103B030BD9DF8043065F307138DF85F
:103850000430012301AA10212046FFF7CAFFF0E738
:1038600010B582B00C4606236A462821FFF7BCFF3C
:103870009DF8012022809DF8003003EB0223238075
:103880009DF8032062809DF8023003EB02236380E1
:103890009DF80520A2809DF8043003EB0223A3804D
:1038A00002B010BD08B50A4601230F21FFF79CFFA7
:1038B00008BD30B583B004460D46012301AA12218C
:1038C000FFF792FF08B103B030BD9DF8043065F3F7
:1038D00000038DF80430012301AA12212046FFF7CE
:1038E00088FFF0E710B582B00C46012301AA12212F
:1038F000FFF77AFF9DF80430C3F30003237002B092
:1039000010BD30B583B004460D46012301AA5821ED
:10391000FFF76AFF08B103B030BD9DF8043065F3CE
:1039200004138DF80430012301AA58212046FFF723
:1039300060FFF0E710B588B004460191012306AAA4
:103940000D21FFF751FFC8B1002856D000285BD0E9
:10395000002860D0002800F09D80002800F0A180A1
:10396000002800F0AD80002800F0B180002800F0B1
:10397000BD80002800F0D88008B010BD9DF804304C
:103980009DF8182063F300028DF81820C3F340015E
:10399000D2B261F341028DF81820C3F38001D2B294
:1039A00061F382028DF81820C3F3C001D2B261F333
:1039B000C3028DF81820C3F30011D2B261F30412D0
:1039C0008DF81820C3F34011D2B261F345128DF87F
:1039D0001820C3F38011D2B261F386128DF818203B
:1039E000DB09D2B263F3C7128DF81820012306AAAF
:1039F0000D212046FFF7FDFEA6E7012305AA5E2163
:103A00002046FFF7F1FEA1E7012304AA5F2120462B
:103A1000FFF7EAFE9CE79DF805309DF8142063F35C
:103A200000028DF81420C3F34001D2B261F34102C9
:103A30008DF81420C3F38001D2B261F382028DF8B5
:103A40001420C3F3C001D2B261F3C3028DF8142075
:103A5000C3F30011D2B261F304128DF81420C3F342
:103A60004011D2B261F345128DF81420C3F38011D6
:103A7000D2B261F386128DF81420DB09D2B263F35F
:103A8000C7128DF81420012305AA5E212046FFF7F6
:103A9000B0FE5FE7012303AA13212046FFF7A4FE2F
:103AA0005BE79DF806209DF80C3062F304138DF857
:103AB0000C30012303AA13212046FFF79AFE4FE79B
:103AC000012307AA1A212046FFF78EFE4BE79DF837
:103AD00006209DF81C3062F3C7138DF81C300123BB
:103AE00007AA1A212046FFF784FE3FE7012302AA16
:103AF00058212046FFF778FE9DF8053013F0FC0FA3
:103B000004D19DF8103013F0FC0F06D09DF808305A
:103B100043F080038DF808302BE79DF808306FF3F1
:103B2000C7138DF8083024E7012302AA5821204644
:103B3000FFF75FFE20E730B585B005460C46012350
:103B400002AA0D21FFF750FE08B105B030BD9DF867
:103B50000830227863F300022270C3F34001D2B22E
:103B600061F341022270C3F38001D2B261F3820299
:103B70002270C3F3C001D2B261F3C3022270C3F357
:103B80000011D2B261F304122270C3F34011D2B219
:103B900061F345122270C3F38011D2B261F3861231
:103BA0002270DB09D2B263F3C7122270012301AA8B
:103BB0005E212846FFF718FE0028C6D19DF8043084
:103BC000627863F300026270C3F34001D2B261F322
:103BD00041026270C3F38001D2B261F3820262706B
:103BE000C3F3C001D2B261F3C3026270C3F3001128
:103BF000D2B261F304126270C3F34011D2B261F326
:103C000045126270C3F38011D2B261F38612627002
:103C1000DB09D2B263F3C712627001236A46132133
:103C20002846FFF7E1FD00288FD19DF80030C3F34F
:103C30000013A27863F30002A270012303AA1A21E1
:103C40002846FFF7D1FD9DF80C30DB09A27863F31D
:103C50000002A27079E730B583B004460D46012317
:103C600001AA1721FFF7C0FD08B103B030BD9DF8D0
:103C7000043065F300038DF80430012301AA1721F5
:103C80002046FFF7B6FDF0E730B583B004460D4699
:103C9000012301AA5921FFF7A7FD08B103B030BDE8
:103CA0009DF8043065F346138DF80430012301AA12
:103CB00059212046FFF79DFDF0E7000018B138B507
:103CC0000546002405E07047044808F06DFD013406
:103CD000E4B2295D0029F7D138BD00BF582C000897
:103CE00030B583B0044601220DF10701104808F0F9
:103CF00035FDD0B90F4B1A789DF807300E498B541B
:103D00000A2B08D00D2B06D0032B04D00132094B0F
:103D10001A7000200AE0084900258D54204610F052
:103D200036FC044B1D70012000E0002003B030BDC4
:103D3000582C0008542C0008002D000800B585B050
:103D40000D4B029300230193FF23009318221921A6
:103D50000A4808F071FD00B101BE094A4FF4E13193
:103D6000064808F08FFC00B101BE044808F02EFDA3
:103D700005B05DF804FB00BFC8640110582C0008B2
:103D8000502C000810B586B00D4C70220021204642
:103D90000FF0D4FD002304930393082202920193B1
:103DA000FF2300933A2339223821204607F018FEDA
:103DB00008B106B010BD0349204607F0D5FAF8E770
:103DC000502D000840420F0008B500F039F800F00F
:103DD00003F800F015F808BD08B5002108460CF0FE
:103DE0007DFEFF22002108460CF0ECFC0021084675
:103DF0000CF032FE014806F00FF808BDDC6401103B
:103E000010B5094C094A0621204609F069FB08480B
:103E100006F002F8074A0721204609F061FB064830
:103E200005F0FAFF10BD00BF000331401865011016
:103E30004C650110E064011014650110FEE70000FC
:103E400010B5962100200DF041FE01200EF094FBEC
:103E50000EF03AFB0EF014FC0EF0FEFB00210846BB
:103E60000CF0CAFF00200CF035FF01200CF01AFF07
:103E700000200CF0AFFE4A4B1B6893F83F4003E074
:103E800020460DF02FFA013C002CF9D10021012031
:103E90000DF038F800200CF09DFF002869D00DF0DF
:103EA000E5F8002108460DF02DF8002108460CF039
:103EB00071FF00200CF00EFF00200CF0F3FE00203C
:103EC0000CF088FE002101200DF01CF800210846AE
:103ED0000DF018F8002102200DF014F80021032045
:103EE0000DF010F8002104200DF00CF82D480DF015
:103EF000D7F8002848D12C480DF082F9002846D187
:103F0000002108460CF046FF002108460CF074FF23
:103F1000264901200DF00CFA00283BD142F2107125
:103F200001200DF093FAC0BB0CF09AFE00200CF0BB
:103F30006BFE00200CF07EFE0CF088FE6421002059
:103F40000DF0C4FD00F044F80CF094FF00200CF0DC
:103F5000A5FF174805F060FF164805F05DFF1648FD
:103F600005F05AFF154805F057FF154805F054FFB6
:103F700010BD0CF0F5FF40F2111398428FD10121D2
:103F800000200CF007FF8AE70420FFF757FF04200A
:103F9000FFF754FF0320FFF751FF0320FFF74EFF09
:103FA000DCFD000850650110400D0300786501102C
:103FB00064650110686501106C6501107065011081
:103FC0007465011008B5012009F0CAFC08BD7047EE
:103FD00010B500200DF044FC00B910BD0446114B93
:103FE00018600CF06DFE0130B4FBF0F00E4B186061
:103FF0000CF07EFE0130B4FBF0F40C4B1C60013C75
:104000000B4BA3FB04239B0C01330A4A13700A4B8E
:10401000A3FB04239B090133084A1360DB03084A0E
:104020001360DAE7082300080C23000804230008C3
:1040300083DE1B4318230008D34D621014230008AD
:104040001023000808B5094808F0C8FDFFF7BFFFB6
:10405000FFF7BEFF00221146032009F0D7FC0448F9
:1040600009F038FB034809F08DFB08BD50B501107D
:10407000C02D000880650110EFF3108172B6074A69
:10408000D2F8883043F47003C2F88830BFF34F8F02
:10409000BFF36F8F81F31088704700BF00ED00E021
:1040A00008B504480DF094FE08B1002008BD024890
:1040B000FCE700BF1C2300080000020610B505F055
:1040C000A9FE044628B144B1FFF77EFE5CB120464C
:1040D00010BD07F005FF0446F5E740F6E441002077
:1040E00007F0B0FFF0E7FFF7DBFF0446EFE7000063
:1040F00010B5FFF7E3FF00B101BEFEF77DFA62B62F
:104100000D4810F06FF90D4C204610F06BF90C497A
:104110000C4810F067F90C490C4810F063F90C4991
:104120000C4810F05FF9204610F05CF900F0BEF981
:1041300000F0BDF9FEE700BFB4650110C0650110D5
:1041400038230008F8650110006601100C660110A4
:104150001C6601102866011038B5054610200FF0C6
:10416000CFFB044605EB450080000FF0C9FBE06083
:104170002581002323606360204638BD00B585B0EB
:104180007AB1002302930E4B1B8801930D4B0093D1
:104190000D4B1B780D4A1278FEF780FD05B05DF8D7
:1041A00004FB00230293064B1B880193084B0093EA
:1041B000054B1B78054A1278FEF770FDEEE700BF4D
:1041C00060230008808101107C810110A88101100A
:1041D0005481011000B585B00023029380B2019094
:1041E000064B0093064B1B78064A12788C21F02070
:1041F000FEF754FD05B05DF804FB00BF0483011019
:10420000D28B0110D38B01102DE9F04184B000282E
:1042100038D0384B1D78384B1E7800240294019416
:10422000364F009733462A4652212820FEF736FDA6
:1042300002944FF6FF730193314B0093314B1B787F
:10424000314A127850215A20FEF728FD02944FF689
:10425000E078CDF804802D4B00932D4B1B782D4A30
:1042600012788C216120FEF719FD0294CDF80480AC
:10427000009733462A4682212820FEF70FFD04B01E
:10428000BDE8F0811B4B1D781B4B1E780024029467
:1042900001941A4F009733462A4682212820FEF7C0
:1042A000FDFC02944FF6E078CDF80480144B0093A7
:1042B000144B1B78144A127850215A20FEF7EEFC5A
:1042C00002944FF6FF730193104B0093104B1B7831
:1042D000104A12788C216120FEF7E0FC0294CDF8A0
:1042E0000480009733462A4652212820FEF7D6FC48
:1042F000C5E700BF616601106066011038660110F5
:10430000AC81011000830110D48B01106466011090
:10431000106901101169011030B585B005460C46D1
:104320004FF6FF730093122373221E219120FEF794
:104330007BFC042D13D8DFE805F003192939490067
:10434000002302934FF6FF730193514B0093514B9F
:104350001B78514A127878214620FEF79FFC042CE6
:1043600053D8DFE804F043546474840000230293BC
:104370004FF6FF730193494B0093464B1B78464A17
:10438000127878214620FEF789FCE8E700230293A3
:104390004FF6FF730193424B00933E4B1B783E4A0E
:1043A000127878214620FEF779FCD8E700230293A3
:1043B0004FF6FF7301933B4B0093364B1B78364A05
:1043C000127878214620FEF769FCC8E700230293A3
:1043D0004FF6FF730193344B00932E4B1B782E4AFC
:1043E000127878214620FEF759FCB8E700230293A3
:1043F0004FF6FF730193264B0093264B1B78264AFA
:1044000012787821FA20FEF749FC05B030BD002370
:1044100002934FF6FF730193204B00931D4B1B78C3
:104420001D4A12787821FA20FEF738FCEDE70023C8
:1044300002934FF6FF730193194B0093154B1B78B2
:10444000154A12787821FA20FEF728FCDDE70023D0
:1044500002934FF6FF730193124B00930D4B1B78A1
:104460000D4A12787821FA20FEF718FCCDE70023D8
:1044700002934FF6FF7301930B4B0093054B1B7890
:10448000054A12787821FA20FEF708FCBDE700BF44
:10449000989E0110F1770110F2770110F477011066
:1044A00038950110D88B011014690110704708B5B8
:1044B00000F034FE00F03CFD00F004FC00F0CAF90E
:1044C00000F02AF800F094FD00F0A4FC00F00CFBD2
:1044D00000F0D4FC02F056F9FEE7000000B583B00E
:1044E0004FF0FF320121002003F0E4F808480FF0FC
:1044F00079FFFEF745FAADF8060000234FF0FF32D2
:104500000DF106010348006801F052FBF1E700BF1E
:10451000F8A70110502F000800B583B0FFF732FC58
:1045200000220221012001F095FF074B1860074B84
:10453000019303230093002380220549054802F0DC
:10454000E9F803B05DF804FB502F0008542F000871
:1045500004A80110DD44001010B584B065E000220D
:10456000BDF80810A0B2FFF709FE019BE41A142061
:1045700002F00CFB302CF2DC3B4B1B68A3F1130167
:10458000029A914251DC13339A424EDC37480FF0C5
:1045900029FF374B03221A70364B1B68B3FA83F39B
:1045A0005B09039300234FF0FF3203A932480068F0
:1045B00001F0FEFA00234FF0FF3203A92F480068F4
:1045C00001F0F6FAD3E70122BDF80810A0B2FFF718
:1045D000D5FD019B1C4418E0254B03221A70254B86
:1045E0001B68B3FA83F35B09039300234FF0FF3298
:1045F00003A92148006801F0DBFA00234FF0FF32E5
:1046000003A91E48006801F0D3FA142002F0BEFA94
:10461000B4F58C7FD7DB144B1B68A3F11301029A0E
:10462000914202DC13339A42D6DD002301930293B8
:10463000134C4FF0FF3201A9206801F089FC4FF0C4
:10464000FF3202A9206801F083FC029A01990D480B
:104650000FF0C8FE05230193064B1C68002CD4D034
:104660004FF4A07483E700BF682300082CA8011052
:10467000482F00084C2F00086C2F0008582F000806
:104680007C2F000810A8011000B587B016E0254A5D
:104690001268002A35D000220292234A1288019221
:1046A000224A0092224A1278224909882248008828
:1046B000FEF7F4FA214B1B78032B32D005220DF1C3
:1046C00016011F4B186801F043FC0028F2D0BDF919
:1046D00016301C4A82FB0312DB17C3EBA213ADF8A2
:1046E00016301AB2134B1B681A44174B1B78590823
:1046F000B2EB5300CBD41144FA29C8DC0D490A604F
:10470000C5E700220292084A128801920F4A0092DD
:10471000074A12780749098807480088FEF7BEFA59
:10472000C8E7FEE74C2F000860230008347501102D
:10473000F07701106823000864230008482F000860
:10474000502F0008D34D62103075011074720110A3
:1047500010B582B04FF0FF320121002002F0AAFF15
:1047600031E0364B1A689DF80710A0B2FFF706FD3E
:104770009DF806301C44142002F008FAB4F59B7F23
:10478000EFDB2F4C00234FF0FF320DF106012068C4
:1047900001F00EFA00234FF0FF320DF107012068FF
:1047A00001F006FA08E0274B1C68283C264B1B68E2
:1047B000143B8DF8073050BB00231A461946234896
:1047C000006801F0F5F900238DF806304FF0FF3254
:1047D0000DF106011E4B186801F0BAFB174B1B6860
:1047E000002BE0D0174B1C682834174B1B68143B78
:1047F0008DF807300028DFD0BDE7104B1A689DF810
:104800000710A0B2FFF7BAFC9DF80630E41A142096
:1048100002F0BCF90A2CF0DC094C00234FF0FF3207
:104820000DF10601206801F0C3F900234FF0FF32BB
:104830000DF10701206801F0BBF9BDE74C2F00081E
:10484000682F00086423000868230008882F0008E8
:10485000C02F000830B583B000220421012001F0F0
:10486000F9FD1A4B186000220121022001F0F2FD2F
:10487000174B186000220421012001F0EBFD154BBD
:1048800018603220FFF768FC134B1860134B01933C
:1048900003240094002380221149124801F03AFFBA
:1048A000114D124B01930094002380222946104899
:1048B00001F030FF0F4B0193009400238022294622
:1048C0000D4801F027FF03B030BD00BF6C2F00087A
:1048D000682F0008582F0008702F0008642F000868
:1048E0003CA80110514700104CA80110602F00088F
:1048F000594500105C2F00088946001000B583B0B0
:1049000003E0022B1FD0032B3DD02A4B1B78002B3A
:10491000F7D129480FF066FD4FF0FF32012100204A
:1049200002F0C8FE254B1B68002BEED1F4238DF856
:10493000043001A8FFF7C2F92148FFF7BFF9214869
:104940000FF050FDE1E7052269461F4B186801F0A2
:10495000FFFA0028D9D04FF0FF3201A91A4B18688E
:1049600001F0F6FA9DF804209DF8001017480FF0AA
:1049700039FD01A8FFF7A2F96846FFF79FF9104833
:10498000FFF79CF9C1E7002301934FF0FF3201A923
:104990000F4B186801F0DCFAF3238DF800300D4856
:1049A0000FF020FD6846FFF789F90548FFF786F903
:1049B000ABE700BF482F000858A80110802F00085F
:1049C00068A801106CA80110682F000874A80110D5
:1049D000582F00088CA8011000B587B02DE00020EA
:1049E000FEF7EEF80125334B1D60334B30221A6081
:1049F000002400940223224621463048006802F039
:104A0000ADFE00940223224621462D48006802F0A4
:104A1000A5FE00940223224621462A48006802F09F
:104A20009DFE0223284A1370284A156000942246EE
:104A300021462748006802F091FE03A8FFF750F9CD
:104A40000028FAD0234C9DF80C1020460FF0CAFC29
:104A50009DF80D1020460FF0C5FC9DF80C20F42A9F
:104A6000BDD0F32A16D004929DF80D1005911A4876
:104A70000FF0B8FC194C00234FF0FF3205A9206855
:104A800001F096F800234FF0FF3204A9206801F0EE
:104A90008FF8D2E7074B1B68059300234FF0FF32D6
:104AA00005A90F48006801F083F80E480FF09AFC42
:104AB000C3E700BF4C2F000864230008542F0008F0
:104AC000C42F0008642F0008482F0008802F00081A
:104AD000782F000824A80110ACA801107C2F000832
:104AE0006C2F00089CA8011010B582B00022042190
:104AF000022001F0AFFC0C4B1860FFF71FF90B4BC5
:104B0000019303240094002380220949094801F0FD
:104B100001FE094B019300940023802207490848B5
:104B200001F0F8FD02B010BD7C2F0008742F0008C2
:104B3000C8A80110D9490010782F0008D4A8011086
:104B4000FD48001000B583B00021019101AA094B76
:104B5000186802F0C3FE019B4BB14FF0E0234FF009
:104B60008052C3F8042DBFF34F8FBFF36F8F03B094
:104B70005DF804FB8C2F000800B583B00021019183
:104B800001AA094B186802F0A9FE019B4BB14FF036
:104B9000E0234FF08052C3F8042DBFF34F8FBFF3D3
:104BA0006F8F03B05DF804FB902F000800B583B051
:104BB0004FF0FF320121002002F07CFD084B1B78F2
:104BC000022BF5D107480FF00DFC012301930023C0
:104BD000052201A90448006800F0EAFFE8E700BFE9
:104BE000482F0008E4A80110842F000800B583B006
:104BF0004FF0FF320121002002F05CFD18480FF059
:104C0000F1FB184B1B78002BF2D10020FDF7D8FFE9
:104C100015480FF0E7FB00240094022322462146AA
:104C20001248006802F09AFD0094022322462146B1
:104C30000F48006802F092FD0094022322462146AC
:104C40000C48006802F08AFD0094022322462146A7
:104C50000948006802F082FD024B02221A70C7E781
:104C6000F4A80110482F0008FCA80110542F0008D8
:104C7000C42F0008642F0008782F000808B50649E3
:104C8000064B0B60332004F0ABFF0123032202210B
:104C9000332004F0CBFF08BD942F0008454B0010D3
:104CA00008B50649064B0B60342004F099FF012338
:104CB00003220221342004F0B9FF08BDA42F00080C
:104CC000794B001010B582B0FFF7D8FFFFF7E8FF6F
:104CD00003220021012001F0BDFB0F4B18600022D0
:104CE0000221012001F0B6FB0C4B18600C4B019324
:104CF00003240094002380220A490B4801F00AFD96
:104D00000A4B01930094002380220949094801F0CD
:104D100001FD02B010BD00BF882F0008842F0008DD
:104D20008C2F000808A90110AD4B0010902F00082F
:104D300014A90110ED4B001030B585B03EE0012004
:104D4000FDF732FD01302E4A82FB0032C317C3EB60
:104D5000620303EB8303C31A8DF80D304DE005F1B8
:104D600010036B4413F8041C2046FDF7E7FC0134E4
:104D7000A4B20135012DF2DD002404E00021284613
:104D8000FDF7DCFC0134012C10DCA5B22846FDF750
:104D90000BFD0428F2D82846FDF706FD2846FDF74E
:104DA00003FD014617480FF01DFBEBE700210091C2
:104DB00002230A461448006802F0D0FC05220DF1D7
:104DC0000E01124B186801F0C3F80028F6D0104805
:104DD0000FF008FBBDF80E30002BB0D10020FDF71E
:104DE000E3FC0130064A82FB0032C317C3EB6203C7
:104DF00003EB8303C31A8DF80C3000252C46B9E76A
:104E00006766666624A80110B82F00086C2F00089A
:104E100020A9011000B583B0FDF7FEFB064B0193FE
:104E200003230093002380220449054801F072FC0B
:104E300003B05DF804FB00BFB42F00082CA90110DB
:104E4000394D001010B54FF0FF320121002002F063
:104E500031FC09480FF0C6FA0020FDF7B1FE002032
:104E6000FDF7A2FC04460120FDF79EFC014620460A
:104E7000FFF752FA10BD00BF38A9011000B583B08A
:104E8000064B019303230093002380220449054825
:104E900001F040FC03B05DF804FB00BFB82F000830
:104EA00044A90110454E001030B583B01D4B186861
:104EB000FFF790F90020FFF7A7F9002515E0002182
:104EC0000846FDF73BFC00210120FDF737FC10E010
:104ED000A5B90120144B1870FFF796F9124B1B78F7
:104EE000012B15D0022B1CD02546FEF78FFB062880
:104EF000E5D0FEF737FC04460428E9D0032CEDD1B9
:104F0000002DEBD10020084B1870FFF77DF9E5E785
:104F10000021009102230A460448006802F01EFCAA
:104F2000E2E7FEE760230008482F0008C82F0008CA
:104F300000B583B0FEF744FBFEF7D4FBFEF74BFB56
:104F4000064B019303230093002380220449054864
:104F500001F0E0FB03B05DF804FB00BFBC2F0008CC
:104F600050A90110A94E001070B582B04FF0FF3269
:104F70000121002002F09EFB40260425344617E064
:104F800040260425344623E000234FF0FF326946D3
:104F90001448006800F00CFE0020FDF78AFD4FF079
:104FA000FF31114B186801F082F840260425344681
:104FB000FDF77AFD2046FDF77CFDC82007F056F886
:104FC00000957F2CDCD076083444E4B20135ADB2D4
:104FD000012201A9054B186800F0BAFF0028E7D0AC
:104FE000D2E700BFC02F0008882F0008842F0008D8
:104FF00000B583B000220221012001F02BFA0A4BF8
:1050000018608020FDF75BFD0020FDF752FD074B87
:10501000019303230093002380220549054801F0F2
:1050200079FB03B05DF804FBC02F0008C42F000813
:105030005CA90110694F00102DE9F041FDF704FA59
:105040008046012500241AE00022314B30463946C3
:105050000EF0FEF800B901252E4B1868FFF7BAF8DC
:10506000062C09D8DFE804F004373C41464B4F00DA
:10507000284B4FF6FF721A60642006F0F7FF4FF0DE
:10508000FF320121002002F015FBFDF7DDF90DF0E4
:1050900003FE06460F4640460DF0FEFD02460B4657
:1050A000304639460DF08CFF06460F460022184B5D
:1050B0000EF0CEF80028C7D0002DC5D0621C164CCB
:1050C00084FB0234A318D417C4EBA304C4EBC404B8
:1050D000141B0025C0E70F4B4FF478421A60CBE752
:1050E0000C4B4FF6E4321A60C6E70A4B4FF6E072FB
:1050F0001A60C1E7074B4FF4FC621A60BCE7054B2E
:105100001F221A60B8E7034B4AF254221A60B3E731
:105110000000E03F602300089324499200B583B06B
:10512000FDF77AFB064B01930323009300238022B3
:105130000449054801F0EEFA03B05DF804FB00BF36
:10514000C82F00086CA901103950001000000000A1
:105150000230800803D001300238FCD100BF00BF0C
:105160007047EFF3108072B6704780F31088704775
:10517000B0F1FF3F22D008B338B5C50E43011B1A6A
:1051800065F10005AD0045EA93759B00181845F1DF
:105190000005ED0045EA5075C4004FF47A72002313
:1051A000204629460EF0F4F86FF47A73A34240F2D9
:1051B000E733AB4101D26FF0010038BD70470020EA
:1051C00070470000034B0360034B0B6080231360A8
:1051D000704700BFE4350008E42F0008034B03606C
:1051E000034B0B604FF4807313607047B4360008B4
:1051F000E431000830B583B00446002301931D4B11
:105200001B68CBB11B4B1B68A3B1FFF7AAFF054678
:1052100001F08AFF58B14FF47A7000FB04F416488D
:10522000A0FB0434A409FFF7CAFF84420ED8284625
:10523000FFF79BFF03B030BD104805F075FB18B9B0
:105240000C4B0E4A1A60DDE701BEDBE7012301AA21
:10525000211A0848006806F08BFE0028E7D1019B60
:10526000A34200D901BE0198FFF782FF01F0E6FAE0
:10527000DDE700BFCC2F0008D34D6210D02F00080F
:10528000EFF3058303B100BE7047000008B5074B7C
:105290001B7813B1054B187808BD01F06FFF01387A
:1052A00018BF0120014B1870F4E700BFD438000884
:1052B00010B5FFF7E5FF00F04DF90024032C0BDCDF
:1052C000104B53F8243013B1013424B2F6E70D4BE0
:1052D000012143F8241001E04FF0FF3400F05CF9A5
:1052E000002C0BDB04EB8401074B03EB01110420C2
:1052F00001F0ECF8034B43F8240010BD00BE002081
:10530000FBE700BF843700089437000810B5044657
:10531000FFF7B6FFFFF7BAFF30B142F21071204637
:1053200000F096FF0128F8D110BD10B50446FFF734
:10533000A7FFFFF7ABFF00B910BD204600F0FDFC52
:10534000FAE7000008B5FFF7B3FF074B1860FFF757
:10535000AFFF064B1860FFF7ABFF054B1860FFF778
:10536000A7FF044B186008BDE0380008DC380008CF
:10537000D8380008E438000808B50346084A106821
:10538000084A121A9A4203DB0344054A136008BD17
:105390000EF07EF90C2303604FF0FF30F7E700BFFB
:1053A0006C23000800E8010808B5024B1868FFF7F5
:1053B000ADFF08BDE038000808B5024B1868FFF7DC
:1053C000B4FF08BDE038000800F1080343604FF067
:1053D000FF328260C36003610023036070470023D3
:1053E0000361704743684B609A688A6051609960B6
:1053F000086103680133036070470369416882688C
:105400008A60416851605A68824206D00022026177
:105410001A68013A1A601868704782685A60F5E79E
:1054200030B40D68B5F1FF3F11D000F108031C4600
:105430005B681A68AA42FAD963684B6099608C600D
:105440006160086103680133036030BC7047046920
:10545000F2E7000082B0002301930D4B1B68B3F10B
:10546000FF3F08D04FF03F0383F31188BFF36F8FE6
:10547000BFF34F8F01BE4FF03F0383F31188BFF39B
:105480006F8FBFF34F8F019B002BFCD002B0704792
:105490007023000808480068006880F308884FF00F
:1054A000000080F3148862B661B6BFF34F8FBFF37C
:1054B0006F8F00DF00BF000008ED00E0DFF80C0098
:1054C000016841F4700101607047000088ED00E060
:1054D00008B54FF03F0383F31188BFF36F8FBFF31D
:1054E0004F8F01F0F1F928B14FF0E0234FF08052D7
:1054F000C3F8042D002383F3118808BD4FF0807397
:1055000040F8043C21F0010140F8081C054B40F82C
:105510000C3C40F8202C6FF0020340F8243C443847
:10552000704700BF5554001000000000000000004C
:10553000074B19680868B0E8F04F80F30988BFF39B
:105540006F8F4FF0000080F311887047AFF3008039
:105550005CF900084FF03F0383F31188BFF36F8FAE
:10556000BFF34F8F0B4A136801331360012B00D038
:1055700070474FF0E023D3F8043D13F0FF0FF7D04E
:105580004FF03F0383F31188BFF36F8FBFF34F8F4B
:1055900001BEEDE770230008094B1B6843B94FF0CB
:1055A0003F0383F31188BFF36F8FBFF34F8F01BEAB
:1055B000034A1368013B13600BB983F311887047EA
:1055C0007023000800000000000000000000000040
:1055D000EFF30980BFF36F8F154B1A681EF0100FA1
:1055E00008BF20ED108A20E9F04F10602DE9090076
:1055F0004FF03F0080F31188BFF34F8FBFF36F8FE1
:1056000001F022FB4FF0000080F3118809BC1968FB
:105610000868B0E8F04F1EF0100F08BFB0EC108A19
:1056200080F30988BFF36F8F704700BFAFF300802E
:105630005CF900084FF0E022002313619361074BEF
:105640001B680749A1FB03139B09013B5361072317
:105650001361044B9B68044ADA6370470423000813
:10566000D34D621000ED00E0D154001030B583B08E
:105670004FF0E023D3F8002D3E4B9A421AD04FF062
:10568000E023D3F8002D3C4B9A421DD03B4B1A78B7
:10569000D2B20192FF221A701B78DBB28DF8033070
:1056A0009DF8033003F03F03354A1370354B072252
:1056B0001A601DE04FF03F0383F31188BFF36F8F33
:1056C000BFF34F8F01BEDAE74FF03F0383F311883A
:1056D000BFF36F8FBFF34F8F01BED7E7294A13681F
:1056E000013B13609DF803305B00DBB28DF80330A3
:1056F0009DF8033013F0800FF0D1224B1B68042B70
:1057000008D04FF03F0383F31188BFF36F8FBFF3CF
:105710004F8F01BE1B4A13681B02136003F4E06342
:105720001360019BDBB2154A13704FF0E024D4F8EC
:10573000203D43F47F03C4F8203DD4F8203D43F0DE
:105740007F43C4F8203DFFF775FF00250E4B1D6019
:10575000FFF7B4FED4F8343F43F04043C4F8343F7D
:10576000FFF798FE01F070FAFFF774FE284603B0C9
:1057700030BD00BF71C20F4170C20F4100E400E0B4
:10578000E8380008EC38000870230008EFF30583C0
:105790000F2B0FD9114A9B5CDBB2114A12789A4247
:1057A00008D94FF03F0383F31188BFF36F8FBFF326
:1057B0004F8F01BE4FF0E023D3F80C3D03F4E063BC
:1057C000084A1268934208D94FF03F0383F31188C7
:1057D000BFF36F8FBFF34F8F01BE7047F0E300E060
:1057E000E8380008EC3800084FF03F0383F31188D5
:1057F000BFF36F8FBFF34F8F01BEFEE74FF03F0344
:1058000083F31188BFF36F8FBFF34F8F01BEFEE7A5
:10581000104A12F0070F1AD0D11D21F00701C1F56F
:10582000404313440A460C4802600021416013447F
:10583000083B23F007030948036059601960991A6F
:1058400051601360064B1960064B196070474FF4A6
:105850004043E8E7F438000804F90008F03800088D
:10586000F8F80008F4F80008164B1A461B68834243
:10587000FBD3516802EB010C844509D0416800EB71
:10588000010C634509D00360904219D01060704745
:105890004068014451601046F0E710B40A4C246897
:1058A000A3420BD05B681944416013681B68036016
:1058B000904200D010605DF8044B70470460F7E739
:1058C000704700BF04F90008F038000870B50546BD
:1058D00001F09AFD3C4B1B6893B13DB105F0070305
:1058E000C3F11003DA43AA420DD31D44002D0CDB93
:1058F000F5B1364B1B68AB421ED3354A146821E024
:10590000FFF786FFE9E70025F0E701F099F80026A8
:10591000FFF76AFF16F0070F08D04FF03F0383F33D
:105920001188BFF36F8FBFF34F8F01BE304670BD3C
:1059300001F086F80026EBE701F082F80026E7E7A1
:1059400022461C466368AB4202D22368002BF7D183
:105950001D4B1B68A34233D01668083623681360BA
:1059600063685B1B102B12D9601910F0070F08D069
:105970004FF03F0383F31188BFF36F8FBFF34F8F57
:1059800001BE63685B1B43606560FFF76DFF626883
:105990000E490B689B1A0B600E4909688B4201D2B5
:1059A0000C490B6042F000426260002323600A4A07
:1059B00013680133136001F043F8002EAAD1A7E762
:1059C00001F03EF80026A3E7F0380008F4F80008DC
:1059D00004F90008F8F80008FCF8000800283AD09C
:1059E00038B50446A0F1080550F8043C002B08DB4C
:1059F0004FF03F0383F31188BFF36F8FBFF34F8FD7
:105A000001BE54F8083C43B14FF03F0383F31188C3
:105A1000BFF36F8FBFF34F8F01BE54F8043C002BD0
:105A200002DA54F8082C02B138BD23F0004344F8E0
:105A3000043C01F0E9FC54F8041C074A13680B44C9
:105A400013602846FFF710FF044A13680133136000
:105A500000F0F6FFE8E77047F4F8000800F90008E6
:105A60000346406A18B11B6B1868C0F10700704705
:105A700010B50446FFF76EFDA26BE36B9A4204D0AB
:105A80000024FFF789FD204610BD0124F9E710B579
:105A90000446FFF75FFDA36B23B90124FFF77CFDEC
:105AA000204610BD0024F9E770B504461546866B04
:105AB000026C5AB903681BB100200136A66370BDA1
:105AC000806801F033FD0023A360F6E76DB94068FC
:105AD0000DF026FF226C636813446360A268934252
:105AE00019D3236863602846E7E7C0680DF018FF04
:105AF000226C5142E3689B1AE3602268934202D20F
:105B0000A3680B44E360022D01D00020D5E726B145
:105B1000013E0020D1E72846CFE70020CDE703462D
:105B2000026C6AB110B50846D9681144D9609C6806
:105B3000A14201D31968D960D9680DF0F1FE10BDFA
:105B4000704738B50546FFF705FD95F8454064B246
:105B500001E0013C64B2002C0ADD6B6A43B105F13F
:105B6000240001F0A9F90028F3D001F0D7FAF0E7FA
:105B7000FF2385F84530FFF70FFDFFF7EBFC95F8A5
:105B8000444064B201E0013C64B2002C0ADD2B69A0
:105B900043B105F1100001F08FF90028F3D001F0B6
:105BA000BDFAF0E7FF2385F84430FFF7F5FC38BD78
:105BB000F0B585B00F4601921D46044690B1DFB1A5
:105BC000022D26D001F0DAFA50B9019B43B14FF013
:105BD0003F0383F31188BFF36F8FBFF34F8F01BE75
:105BE000002661E04FF03F0383F31188BFF36F8F0E
:105BF000BFF34F8F01BEE2E7236C002BE0D04FF0E4
:105C00003F0383F31188BFF36F8FBFF34F8F01BE44
:105C1000D6E7E36B012BD5D04FF03F0383F3118818
:105C2000BFF36F8FBFF34F8F01BECBE72A463946D4
:105C30002046FFF739FF636A7BB948B14FF0E02394
:105C40004FF08052C3F8042DBFF34F8FBFF36F8F17
:105C5000FFF7A2FC012005B0F0BD04F1240001F023
:105C60002BF90028F4D04FF0E0234FF08052C3F816
:105C7000042DBFF34F8FBFF36F8FE9E7FFF78CFC65
:105C80000020E8E702A801F0EDFB012619E000235F
:105C900084F8443021E0002384F8453023E0204696
:105CA000FFF74FFF00F0CCFEFFF754FCA26BE36B55
:105CB0009A42BBD3022DB9D0019B002BDED0002E1F
:105CC000E0D0FFF769FC01F09FFBFFF743FC94F87D
:105CD000440040B2B0F1FF3FD9D094F8450040B243
:105CE000B0F1FF3FD7D0FFF757FC01A902A801F0A0
:105CF000CFF9D8B92046FFF7BBFE0028CFD00199D5
:105D000004F1100001F094FB2046FFF71AFF00F0A9
:105D100097FE0028C8D14FF0E0234FF08052C3F81F
:105D2000042DBFF34F8FBFF36F8FBDE72046FFF702
:105D300008FF00F085FE00208DE738B5044630B13D
:105D4000A56801F015FA85420BD0002038BD4FF050
:105D50003F0383F31188BFF36F8FBFF34F8F01BEF3
:105D6000EEE7E368013BE3600BB10120EEE71A4682
:105D700019462046FFF71CFF0120E7E72DE9F8430D
:105D80000E4690461D460446C8B116B3022D2DD0CE
:105D9000FFF7FCFCEFF311894FF03F0383F3118809
:105DA000BFF36F8FBFF34F8FA26BE36B9A422AD37F
:105DB000022D28D0002089F31188BDE8F8834FF028
:105DC0003F0383F31188BFF36F8FBFF34F8F01BE83
:105DD000DBE7236C002BD9D04FF03F0383F311880E
:105DE000BFF36F8FBFF34F8F01BECFE7E36B012B84
:105DF000CED04FF03F0383F31188BFF36F8FBFF313
:105E00004F8F01BEC4E794F845707FB2A36B2A465A
:105E100031462046FFF748FEB7F1FF3F0FD1636AD6
:105E20000BB90120C7E704F1240001F045F8E0B107
:105E3000B8F1000F1BD00120C8F80000BBE701F04B
:105E4000F1FA874215D27F2F05D001377FB284F84F
:105E500045700120AFE74FF03F0383F31188BFF394
:105E60006F8FBFF34F8F01BEEFE70120A3E7012043
:105E7000A1E701209FE7F8B50D46044640B3236C27
:105E800043B14FF03F0383F31188BFF36F8FBFF32C
:105E90004F8F01BE23682BB3FFF778FCEFF3118718
:105EA0004FF03F0383F31188BFF36F8FBFF34F8F22
:105EB000A36BE26B9A4241D994F8456076B2013304
:105EC000A363B6F1FF3F23D1636AC3B9012036E073
:105ED0004FF03F0383F31188BFF36F8FBFF34F8FF2
:105EE00001BECCE7A368002BD6D04FF03F0383F36D
:105EF0001188BFF36F8FBFF34F8F01BECCE704F162
:105F0000240000F0D9FFE8B1F5B10120286016E0C7
:105F100001F088FA864219D27F2E05D0013676B27A
:105F200084F8456001200AE04FF03F0383F31188B5
:105F3000BFF36F8FBFF34F8F01BEEFE7002087F3F2
:105F40001188F8BD0120FAE70120F8E70120F6E703
:105F5000F0B585B00F460192044680B1CFB101F093
:105F60000DF950B9019B43B14FF03F0383F3118802
:105F7000BFF36F8FBFF34F8F01BE002655E04FF088
:105F80003F0383F31188BFF36F8FBFF34F8F01BEC1
:105F9000E4E7236C002BE2D04FF03F0383F311883A
:105FA000BFF36F8FBFF34F8F01BED8E7394620464E
:105FB000FFF7B5FD013DA563236923B9FFF7ECFAAF
:105FC000012005B0F0BD04F1100000F075FF0028BD
:105FD000F4D04FF0E0234FF08052C3F8042DBFF30C
:105FE0004F8FBFF36F8FE9E7FFF7D6FA0020E8E79E
:105FF00002A801F037FA012621E0002384F844309A
:1060000029E0002384F845302BE02046FFF799FD76
:1060100000F016FD09E02046FFF793FD00F010FDAB
:106020002046FFF734FD00283FD1FFF793FAA56B18
:10603000002DBBD1019B002BD6D0002ED8D0FFF76E
:10604000ABFA01F0E1F9FFF785FA94F844305BB25E
:10605000B3F1FF3FD1D094F845305BB2B3F1FF3FCD
:10606000CFD0FFF799FA01A902A801F011F8002892
:10607000D1D12046FFF70BFD0028C6D0019904F1CD
:10608000240001F0D5F92046FFF75BFD00F0D8FCB5
:106090000028CAD14FF0E0234FF08052C3F8042DFE
:1060A000BFF34F8FBFF36F8FBFE7002089E770B555
:1060B00084B001910446D8B1236C43B14FF03F0343
:1060C00083F31188BFF36F8FBFF34F8F01BE01F0D1
:1060D00055F850B9019B43B14FF03F0383F311884A
:1060E000BFF36F8FBFF34F8F01BE002635465DE0D3
:1060F0004FF03F0383F31188BFF36F8FBFF34F8FD0
:1061000001BED9E7013BA363236833B1236943B9D7
:10611000FFF742FA012004B070BD01F0BDFAA060A3
:10612000F4E704F1100000F0C7FE0028F0D04FF0B3
:10613000E0234FF08052C3F8042DBFF34F8FBFF31D
:106140006F8FE5E746B14FF03F0383F31188BFF34C
:106150006F8FBFF34F8F01BEFFF71EFA0020DAE703
:1061600002A801F07FF901252AE0002384F84430D9
:1061700032E0002384F8453034E0FFF7EBF9A06803
:1061800001F07CF90646FFF707FA3BE02046FFF7EF
:10619000D8FC00F055FC09E02046FFF7D2FC00F0E7
:1061A0004FFC2046FFF773FC002842D1FFF7D2F9DD
:1061B000A36B002BA6D1019B002BC3D0002DCFD009
:1061C000FFF7EAF901F020F9FFF7C4F994F8443039
:1061D0005BB2B3F1FF3FC8D094F845305BB2B3F186
:1061E000FF3FC6D0FFF7D8F901A902A800F050FF81
:1061F0000028D1D12046FFF74AFC0028C6D02368EA
:10620000002BBAD0019904F1240001F011F92046C5
:10621000FFF797FC00F014FC0028C7D14FF0E023F3
:106220004FF08052C3F8042DBFF34F8FBFF36F8F31
:10623000BCE70EB900206EE7FFF78CF92046FFF7A8
:106240000FFC0146A06801F0C7F9FFF7A5F9F1E7D7
:1062500070B50D46044668B1A66800F089FF864215
:1062600012D029462046FFF722FF88B1E3680133A8
:10627000E3600DE04FF03F0383F31188BFF36F8FAE
:10628000BFF34F8F01BEE7E7E3680133E36001200E
